{
  "contractName": "CityHacks",
  "abi": [
    {
      "inputs": [],
      "stateMutability": "nonpayable",
      "type": "constructor"
    },
    {
      "anonymous": false,
      "inputs": [
        {
          "indexed": true,
          "internalType": "address",
          "name": "from",
          "type": "address"
        },
        {
          "indexed": true,
          "internalType": "uint256",
          "name": "id",
          "type": "uint256"
        },
        {
          "indexed": false,
          "internalType": "string",
          "name": "description",
          "type": "string"
        },
        {
          "indexed": false,
          "internalType": "uint256",
          "name": "timestamp",
          "type": "uint256"
        }
      ],
      "name": "NewHack",
      "type": "event"
    },
    {
      "anonymous": false,
      "inputs": [
        {
          "indexed": true,
          "internalType": "address",
          "name": "previousOwner",
          "type": "address"
        },
        {
          "indexed": true,
          "internalType": "address",
          "name": "newOwner",
          "type": "address"
        }
      ],
      "name": "OwnershipTransferred",
      "type": "event"
    },
    {
      "anonymous": false,
      "inputs": [
        {
          "indexed": true,
          "internalType": "address",
          "name": "from",
          "type": "address"
        },
        {
          "indexed": true,
          "internalType": "uint256",
          "name": "id",
          "type": "uint256"
        },
        {
          "indexed": false,
          "internalType": "bool",
          "name": "_inadecuate",
          "type": "bool"
        },
        {
          "indexed": true,
          "internalType": "uint256",
          "name": "latestReportNumber",
          "type": "uint256"
        },
        {
          "indexed": false,
          "internalType": "uint256",
          "name": "timestamp",
          "type": "uint256"
        },
        {
          "indexed": false,
          "internalType": "uint256[]",
          "name": "reportedHacks",
          "type": "uint256[]"
        }
      ],
      "name": "TrustReport",
      "type": "event"
    },
    {
      "anonymous": false,
      "inputs": [
        {
          "indexed": true,
          "internalType": "address",
          "name": "from",
          "type": "address"
        },
        {
          "indexed": true,
          "internalType": "uint256",
          "name": "hackId",
          "type": "uint256"
        },
        {
          "indexed": false,
          "internalType": "bool",
          "name": "_voteResult",
          "type": "bool"
        },
        {
          "indexed": false,
          "internalType": "uint256",
          "name": "timestamp",
          "type": "uint256"
        }
      ],
      "name": "VotedHack",
      "type": "event"
    },
    {
      "inputs": [],
      "name": "owner",
      "outputs": [
        {
          "internalType": "address",
          "name": "",
          "type": "address"
        }
      ],
      "stateMutability": "view",
      "type": "function",
      "constant": true
    },
    {
      "inputs": [],
      "name": "renounceOwnership",
      "outputs": [],
      "stateMutability": "nonpayable",
      "type": "function"
    },
    {
      "inputs": [
        {
          "internalType": "address",
          "name": "newOwner",
          "type": "address"
        }
      ],
      "name": "transferOwnership",
      "outputs": [],
      "stateMutability": "nonpayable",
      "type": "function"
    },
    {
      "inputs": [],
      "name": "getLatestReportNumber",
      "outputs": [
        {
          "internalType": "uint256",
          "name": "",
          "type": "uint256"
        }
      ],
      "stateMutability": "view",
      "type": "function",
      "constant": true
    },
    {
      "inputs": [
        {
          "internalType": "uint256",
          "name": "_hackId",
          "type": "uint256"
        },
        {
          "internalType": "uint256[]",
          "name": "_reportedHacks",
          "type": "uint256[]"
        }
      ],
      "name": "reportHack",
      "outputs": [],
      "stateMutability": "nonpayable",
      "type": "function"
    },
    {
      "inputs": [
        {
          "internalType": "uint256",
          "name": "_hackId",
          "type": "uint256"
        },
        {
          "internalType": "uint256[]",
          "name": "_reportedHacks",
          "type": "uint256[]"
        }
      ],
      "name": "unreportHack",
      "outputs": [],
      "stateMutability": "nonpayable",
      "type": "function"
    },
    {
      "inputs": [
        {
          "internalType": "uint256",
          "name": "_hackId",
          "type": "uint256"
        },
        {
          "internalType": "uint256[]",
          "name": "_reportedHacks",
          "type": "uint256[]"
        }
      ],
      "name": "hideAndUnreportHack",
      "outputs": [],
      "stateMutability": "nonpayable",
      "type": "function"
    },
    {
      "inputs": [
        {
          "internalType": "uint256",
          "name": "_hackId",
          "type": "uint256"
        }
      ],
      "name": "hideHack",
      "outputs": [],
      "stateMutability": "nonpayable",
      "type": "function"
    },
    {
      "inputs": [
        {
          "internalType": "uint256",
          "name": "_hackId",
          "type": "uint256"
        }
      ],
      "name": "unHideHack",
      "outputs": [],
      "stateMutability": "nonpayable",
      "type": "function"
    },
    {
      "inputs": [
        {
          "internalType": "string",
          "name": "_description",
          "type": "string"
        },
        {
          "internalType": "uint256",
          "name": "_cityId",
          "type": "uint256"
        },
        {
          "internalType": "uint256",
          "name": "_categoryId",
          "type": "uint256"
        }
      ],
      "name": "postHack",
      "outputs": [],
      "stateMutability": "nonpayable",
      "type": "function"
    },
    {
      "inputs": [
        {
          "internalType": "uint256",
          "name": "_hackId",
          "type": "uint256"
        },
        {
          "internalType": "bool",
          "name": "_newVoteResult",
          "type": "bool"
        }
      ],
      "name": "voteHack",
      "outputs": [],
      "stateMutability": "nonpayable",
      "type": "function"
    },
    {
      "inputs": [
        {
          "internalType": "uint256",
          "name": "_hackId",
          "type": "uint256"
        }
      ],
      "name": "tipHacker",
      "outputs": [],
      "stateMutability": "payable",
      "type": "function",
      "payable": true
    },
    {
      "inputs": [],
      "name": "getAllHacks",
      "outputs": [
        {
          "components": [
            {
              "internalType": "address",
              "name": "owner",
              "type": "address"
            },
            {
              "internalType": "uint256",
              "name": "id",
              "type": "uint256"
            },
            {
              "internalType": "uint256",
              "name": "cityId",
              "type": "uint256"
            },
            {
              "internalType": "uint256",
              "name": "categoryId",
              "type": "uint256"
            },
            {
              "internalType": "string",
              "name": "description",
              "type": "string"
            },
            {
              "internalType": "uint256",
              "name": "timestamp",
              "type": "uint256"
            },
            {
              "internalType": "uint256",
              "name": "totalUpvotes",
              "type": "uint256"
            },
            {
              "internalType": "uint256",
              "name": "totalDownvotes",
              "type": "uint256"
            },
            {
              "internalType": "bool",
              "name": "hidden",
              "type": "bool"
            }
          ],
          "internalType": "struct CityHacks.Hack[]",
          "name": "",
          "type": "tuple[]"
        }
      ],
      "stateMutability": "view",
      "type": "function",
      "constant": true
    }
  ],
  "bytecode": "0x608060405234801561001057600080fd5b5061002d61002261003260201b60201c565b61003a60201b60201c565b6100fe565b600033905090565b60008060009054906101000a900473ffffffffffffffffffffffffffffffffffffffff169050816000806101000a81548173ffffffffffffffffffffffffffffffffffffffff021916908373ffffffffffffffffffffffffffffffffffffffff1602179055508173ffffffffffffffffffffffffffffffffffffffff168173ffffffffffffffffffffffffffffffffffffffff167f8be0079c531659141344cd1fd0a4f28419497f9722a3daafe3b4186f6b6457e060405160405180910390a35050565b611de58061010d6000396000f3fe6080604052600436106100c25760003560e01c8063715018a61161007f578063c342b5af11610059578063c342b5af1461021f578063c70ccbb014610248578063cf42dfe714610271578063f2fde38b1461029a576100c2565b8063715018a6146101b25780638da5cb5b146101c95780638e15f0d5146101f4576100c2565b806335a74ca1146100c75780633ba5fc3e146100f05780634218869e1461010c57806342a66733146101355780636cd7d7681461015e5780636ea1028714610187575b600080fd5b3480156100d357600080fd5b506100ee60048036038101906100e9919061125c565b6102c3565b005b61010a6004803603810190610105919061125c565b610380565b005b34801561011857600080fd5b50610133600480360381019061012e91906113e2565b610475565b005b34801561014157600080fd5b5061015c600480360381019061015791906113e2565b610508565b005b34801561016a57600080fd5b506101856004803603810190610180919061125c565b6105b1565b005b34801561019357600080fd5b5061019c61066e565b6040516101a9919061144d565b60405180910390f35b3480156101be57600080fd5b506101c7610678565b005b3480156101d557600080fd5b506101de610700565b6040516101eb91906114a9565b60405180910390f35b34801561020057600080fd5b50610209610729565b604051610216919061170c565b60405180910390f35b34801561022b57600080fd5b506102466004803603810190610241919061175a565b6108c8565b005b34801561025457600080fd5b5061026f600480360381019061026a91906113e2565b610c95565b005b34801561027d57600080fd5b506102986004803603810190610293919061184f565b610dd5565b005b3480156102a657600080fd5b506102c160048036038101906102bc91906118ea565b610fab565b005b6102cb6110a3565b73ffffffffffffffffffffffffffffffffffffffff166102e9610700565b73ffffffffffffffffffffffffffffffffffffffff161461033f576040517f08c379a000000000000000000000000000000000000000000000000000000000815260040161033690611974565b60405180910390fd5b60006003828154811061035557610354611994565b5b906000526020600020906009020160080160006101000a81548160ff02191690831515021790555050565b60006003828154811061039657610395611994565b5b906000526020600020906009020160000160009054906101000a900473ffffffffffffffffffffffffffffffffffffffff1673ffffffffffffffffffffffffffffffffffffffff16346040516103eb906119f4565b60006040518083038185875af1925050503d8060008114610428576040519150601f19603f3d011682016040523d82523d6000602084013e61042d565b606091505b5050905080610471576040517f08c379a000000000000000000000000000000000000000000000000000000000815260040161046890611a55565b60405180910390fd5b5050565b61047d6110a3565b73ffffffffffffffffffffffffffffffffffffffff1661049b610700565b73ffffffffffffffffffffffffffffffffffffffff16146104f1576040517f08c379a00000000000000000000000000000000000000000000000000000000081526004016104e890611974565b60405180910390fd5b6104fb8282610c95565b610504826105b1565b5050565b805160016002546105199190611aa4565b1461052357600080fd5b60018060008282546105359190611aa4565b9250508190555060016002600082825461054f9190611aa4565b92505081905550600154823373ffffffffffffffffffffffffffffffffffffffff167fc0c0a23159c4325ee57855cf2c9c8c4949fd576681992d2582912ab0f4db9d20600142866040516105a593929190611bb8565b60405180910390a45050565b6105b96110a3565b73ffffffffffffffffffffffffffffffffffffffff166105d7610700565b73ffffffffffffffffffffffffffffffffffffffff161461062d576040517f08c379a000000000000000000000000000000000000000000000000000000000815260040161062490611974565b60405180910390fd5b60016003828154811061064357610642611994565b5b906000526020600020906009020160080160006101000a81548160ff02191690831515021790555050565b6000600154905090565b6106806110a3565b73ffffffffffffffffffffffffffffffffffffffff1661069e610700565b73ffffffffffffffffffffffffffffffffffffffff16146106f4576040517f08c379a00000000000000000000000000000000000000000000000000000000081526004016106eb90611974565b60405180910390fd5b6106fe60006110ab565b565b60008060009054906101000a900473ffffffffffffffffffffffffffffffffffffffff16905090565b60606003805480602002602001604051908101604052809291908181526020016000905b828210156108bf5783829060005260206000209060090201604051806101200160405290816000820160009054906101000a900473ffffffffffffffffffffffffffffffffffffffff1673ffffffffffffffffffffffffffffffffffffffff1673ffffffffffffffffffffffffffffffffffffffff1681526020016001820154815260200160028201548152602001600382015481526020016004820180546107f590611c25565b80601f016020809104026020016040519081016040528092919081815260200182805461082190611c25565b801561086e5780601f106108435761010080835404028352916020019161086e565b820191906000526020600020905b81548152906001019060200180831161085157829003601f168201915b505050505081526020016005820154815260200160068201548152602001600782015481526020016008820160009054906101000a900460ff1615151515815250508152602001906001019061074d565b50505050905090565b600382815481106108dc576108db611994565b5b906000526020600020906009020160000160009054906101000a900473ffffffffffffffffffffffffffffffffffffffff1673ffffffffffffffffffffffffffffffffffffffff163373ffffffffffffffffffffffffffffffffffffffff16141561094657600080fd5b6000600460003373ffffffffffffffffffffffffffffffffffffffff1673ffffffffffffffffffffffffffffffffffffffff16815260200190815260200160002060008481526020019081526020016000206040518060400160405290816000820160009054906101000a900460ff161515151581526020016000820160019054906101000a900460ff1615151515815250509050806000015115610b03578115158160200151151514156109fa57600080fd5b806020015115610a8357600160038481548110610a1a57610a19611994565b5b90600052602060002090600902016006016000828254610a3a9190611c57565b92505081905550600160038481548110610a5757610a56611994565b5b90600052602060002090600902016007016000828254610a779190611aa4565b92505081905550610afe565b600160038481548110610a9957610a98611994565b5b90600052602060002090600902016006016000828254610ab99190611aa4565b92505081905550600160038481548110610ad657610ad5611994565b5b90600052602060002090600902016007016000828254610af69190611c57565b925050819055505b610b9b565b8115610b4b57600160038481548110610b1f57610b1e611994565b5b90600052602060002090600902016006016000828254610b3f9190611aa4565b92505081905550610b89565b600160038481548110610b6157610b60611994565b5b90600052602060002090600902016007016000828254610b819190611aa4565b925050819055505b60018160000190151590811515815250505b8181602001901515908115158152505080600460003373ffffffffffffffffffffffffffffffffffffffff1673ffffffffffffffffffffffffffffffffffffffff168152602001908152602001600020600085815260200190815260200160002060008201518160000160006101000a81548160ff02191690831515021790555060208201518160000160016101000a81548160ff021916908315150217905550905050823373ffffffffffffffffffffffffffffffffffffffff167f4fb078f057caaccd039905efcc630de8af450d7c575a79dcddc983edd7423c128442604051610c88929190611c8b565b60405180910390a3505050565b610c9d6110a3565b73ffffffffffffffffffffffffffffffffffffffff16610cbb610700565b73ffffffffffffffffffffffffffffffffffffffff1614610d11576040517f08c379a0000000000000000000000000000000000000000000000000000000008152600401610d0890611974565b60405180910390fd5b80516001600254610d229190611c57565b148015610d3e575060006001600254610d3b9190611c57565b10155b610d4757600080fd5b6001806000828254610d599190611aa4565b92505081905550600160026000828254610d739190611c57565b92505081905550600154823373ffffffffffffffffffffffffffffffffffffffff167fc0c0a23159c4325ee57855cf2c9c8c4949fd576681992d2582912ab0f4db9d2060004286604051610dc993929190611bb8565b60405180910390a45050565b600083905060008151118015610deb5750600083115b8015610df75750600082115b610e0057600080fd5b6000600380549050905060036040518061012001604052803373ffffffffffffffffffffffffffffffffffffffff168152602001838152602001868152602001858152602001878152602001428152602001600081526020016000815260200160001515815250908060018154018082558091505060019003906000526020600020906009020160009091909190915060008201518160000160006101000a81548173ffffffffffffffffffffffffffffffffffffffff021916908373ffffffffffffffffffffffffffffffffffffffff1602179055506020820151816001015560408201518160020155606082015181600301556080820151816004019080519060200190610f1192919061116f565b5060a0820151816005015560c0820151816006015560e082015181600701556101008201518160080160006101000a81548160ff0219169083151502179055505050803373ffffffffffffffffffffffffffffffffffffffff167ff1bd87d4783914bb1934b1c002d65179a1a8d7f4f3f64a198b93c9e8762204b58742604051610f9c929190611ced565b60405180910390a35050505050565b610fb36110a3565b73ffffffffffffffffffffffffffffffffffffffff16610fd1610700565b73ffffffffffffffffffffffffffffffffffffffff1614611027576040517f08c379a000000000000000000000000000000000000000000000000000000000815260040161101e90611974565b60405180910390fd5b600073ffffffffffffffffffffffffffffffffffffffff168173ffffffffffffffffffffffffffffffffffffffff161415611097576040517f08c379a000000000000000000000000000000000000000000000000000000000815260040161108e90611d8f565b60405180910390fd5b6110a0816110ab565b50565b600033905090565b60008060009054906101000a900473ffffffffffffffffffffffffffffffffffffffff169050816000806101000a81548173ffffffffffffffffffffffffffffffffffffffff021916908373ffffffffffffffffffffffffffffffffffffffff1602179055508173ffffffffffffffffffffffffffffffffffffffff168173ffffffffffffffffffffffffffffffffffffffff167f8be0079c531659141344cd1fd0a4f28419497f9722a3daafe3b4186f6b6457e060405160405180910390a35050565b82805461117b90611c25565b90600052602060002090601f01602090048101928261119d57600085556111e4565b82601f106111b657805160ff19168380011785556111e4565b828001600101855582156111e4579182015b828111156111e35782518255916020019190600101906111c8565b5b5090506111f191906111f5565b5090565b5b8082111561120e5760008160009055506001016111f6565b5090565b6000604051905090565b600080fd5b600080fd5b6000819050919050565b61123981611226565b811461124457600080fd5b50565b60008135905061125681611230565b92915050565b6000602082840312156112725761127161121c565b5b600061128084828501611247565b91505092915050565b600080fd5b6000601f19601f8301169050919050565b7f4e487b7100000000000000000000000000000000000000000000000000000000600052604160045260246000fd5b6112d78261128e565b810181811067ffffffffffffffff821117156112f6576112f561129f565b5b80604052505050565b6000611309611212565b905061131582826112ce565b919050565b600067ffffffffffffffff8211156113355761133461129f565b5b602082029050602081019050919050565b600080fd5b600061135e6113598461131a565b6112ff565b9050808382526020820190506020840283018581111561138157611380611346565b5b835b818110156113aa57806113968882611247565b845260208401935050602081019050611383565b5050509392505050565b600082601f8301126113c9576113c8611289565b5b81356113d984826020860161134b565b91505092915050565b600080604083850312156113f9576113f861121c565b5b600061140785828601611247565b925050602083013567ffffffffffffffff81111561142857611427611221565b5b611434858286016113b4565b9150509250929050565b61144781611226565b82525050565b6000602082019050611462600083018461143e565b92915050565b600073ffffffffffffffffffffffffffffffffffffffff82169050919050565b600061149382611468565b9050919050565b6114a381611488565b82525050565b60006020820190506114be600083018461149a565b92915050565b600081519050919050565b600082825260208201905092915050565b6000819050602082019050919050565b6114f981611488565b82525050565b61150881611226565b82525050565b600081519050919050565b600082825260208201905092915050565b60005b8381101561154857808201518184015260208101905061152d565b83811115611557576000848401525b50505050565b60006115688261150e565b6115728185611519565b935061158281856020860161152a565b61158b8161128e565b840191505092915050565b60008115159050919050565b6115ab81611596565b82525050565b6000610120830160008301516115ca60008601826114f0565b5060208301516115dd60208601826114ff565b5060408301516115f060408601826114ff565b50606083015161160360608601826114ff565b506080830151848203608086015261161b828261155d565b91505060a083015161163060a08601826114ff565b5060c083015161164360c08601826114ff565b5060e083015161165660e08601826114ff565b5061010083015161166b6101008601826115a2565b508091505092915050565b600061168283836115b1565b905092915050565b6000602082019050919050565b60006116a2826114c4565b6116ac81856114cf565b9350836020820285016116be856114e0565b8060005b858110156116fa57848403895281516116db8582611676565b94506116e68361168a565b925060208a019950506001810190506116c2565b50829750879550505050505092915050565b600060208201905081810360008301526117268184611697565b905092915050565b61173781611596565b811461174257600080fd5b50565b6000813590506117548161172e565b92915050565b600080604083850312156117715761177061121c565b5b600061177f85828601611247565b925050602061179085828601611745565b9150509250929050565b600080fd5b600067ffffffffffffffff8211156117ba576117b961129f565b5b6117c38261128e565b9050602081019050919050565b82818337600083830152505050565b60006117f26117ed8461179f565b6112ff565b90508281526020810184848401111561180e5761180d61179a565b5b6118198482856117d0565b509392505050565b600082601f83011261183657611835611289565b5b81356118468482602086016117df565b91505092915050565b6000806000606084860312156118685761186761121c565b5b600084013567ffffffffffffffff81111561188657611885611221565b5b61189286828701611821565b93505060206118a386828701611247565b92505060406118b486828701611247565b9150509250925092565b6118c781611488565b81146118d257600080fd5b50565b6000813590506118e4816118be565b92915050565b600060208284031215611900576118ff61121c565b5b600061190e848285016118d5565b91505092915050565b600082825260208201905092915050565b7f4f776e61626c653a2063616c6c6572206973206e6f7420746865206f776e6572600082015250565b600061195e602083611917565b915061196982611928565b602082019050919050565b6000602082019050818103600083015261198d81611951565b9050919050565b7f4e487b7100000000000000000000000000000000000000000000000000000000600052603260045260246000fd5b600081905092915050565b50565b60006119de6000836119c3565b91506119e9826119ce565b600082019050919050565b60006119ff826119d1565b9150819050919050565b7f4661696c656420746f2073656e64204574686572000000000000000000000000600082015250565b6000611a3f601483611917565b9150611a4a82611a09565b602082019050919050565b60006020820190508181036000830152611a6e81611a32565b9050919050565b7f4e487b7100000000000000000000000000000000000000000000000000000000600052601160045260246000fd5b6000611aaf82611226565b9150611aba83611226565b9250827fffffffffffffffffffffffffffffffffffffffffffffffffffffffffffffffff03821115611aef57611aee611a75565b5b828201905092915050565b611b0381611596565b82525050565b600081519050919050565b600082825260208201905092915050565b6000819050602082019050919050565b6000611b4183836114ff565b60208301905092915050565b6000602082019050919050565b6000611b6582611b09565b611b6f8185611b14565b9350611b7a83611b25565b8060005b83811015611bab578151611b928882611b35565b9750611b9d83611b4d565b925050600181019050611b7e565b5085935050505092915050565b6000606082019050611bcd6000830186611afa565b611bda602083018561143e565b8181036040830152611bec8184611b5a565b9050949350505050565b7f4e487b7100000000000000000000000000000000000000000000000000000000600052602260045260246000fd5b60006002820490506001821680611c3d57607f821691505b60208210811415611c5157611c50611bf6565b5b50919050565b6000611c6282611226565b9150611c6d83611226565b925082821015611c8057611c7f611a75565b5b828203905092915050565b6000604082019050611ca06000830185611afa565b611cad602083018461143e565b9392505050565b6000611cbf8261150e565b611cc98185611917565b9350611cd981856020860161152a565b611ce28161128e565b840191505092915050565b60006040820190508181036000830152611d078185611cb4565b9050611d16602083018461143e565b9392505050565b7f4f776e61626c653a206e6577206f776e657220697320746865207a65726f206160008201527f6464726573730000000000000000000000000000000000000000000000000000602082015250565b6000611d79602683611917565b9150611d8482611d1d565b604082019050919050565b60006020820190508181036000830152611da881611d6c565b905091905056fea264697066735822122098c1538187906f5802f0dc65ef229c2d31daa0273ec851cab68200070ccce19864736f6c634300080b0033",
  "immutableReferences": {},
  "source": "// SPDX-License-Identifier: GPL-3.0\n\npragma solidity ^0.8.0;\n\n/// @title A decentralized recommendation source for world famous cities\n/// @author Marcos Palacios (@btadine)\n/// @notice You can use this contract for any purpose, it does not contain complex logic\n/// @dev All function calls are currently implemented without side effects\n\nimport \"hardhat/console.sol\";\nimport \"@openzeppelin/contracts/access/Ownable.sol\";\n\n/// @dev Using Ownable from Open Zeppelin for admin purposes\ncontract CityHacks is Ownable {\n    /// @notice Indicates the number of the last trust report\n    uint256 private latestReportNumber;\n\n    /// @notice Indicates the number of current reported CityHacks\n    uint256 private reportedHacksCount;\n\n    /// @notice Event indicates that a CityHack has been reported or unreported     \n    /// @param from(indexed) Contains the address of the wallet that made effective the transaction\n    /// @param id(indexed) Contains the id of the CityHack\n    /// @param _inadecuate Is a boolean indicating if the CityHack is being reported/unreported\n    /// @param latestReportNumber(indexed) Contains the number of trust report \n    /// @param timestamp Contains the timestamp of the transaction\n    /// @param reportedHacks Contains all the CityHack ids that are currently reported. Must contain as well the id of the current CityHack in case of inadecuated report\n    event TrustReport(address indexed from, uint256 indexed id, bool _inadecuate, uint256 indexed latestReportNumber, uint256 timestamp, uint256[] reportedHacks);\n\n    /// @notice Event indicates that a new CityHack has been created\n    /// @param from(indexed) Contains the address of the wallet that made effective the transaction\n    /// @param id(indexed) Contains the id of the CityHack\n    /// @param description Is a string containing the CityHack description\n    /// @param timestamp Contains the timestamp of the transaction\n    event NewHack(address indexed from, uint256 indexed id, string description, uint256 timestamp);\n\n    /// @notice Event indicates that a CityHack has been voted\n    /// @param from(indexed) Contains the address of the wallet that made effective the transaction\n    /// @param hackId(indexed) Contains the id of the CityHack\n    /// @param _voteResult Is a boolean indicating if the vote it's voteResult or negative\n    event VotedHack(address indexed from, uint256 indexed hackId, bool _voteResult, uint256 timestamp);\n\n    /// @notice Entity holding all the attributes of a CityHack\n    /// @param owner Contains the address of the wallet that made effective the transaction\n    /// @param id Contains the number of the CityHack\n    /// @param cityId Contains a number representing the city of the CityHack, not defined by the contract\n    /// @param categoryId Contains a number representing the category of the CityHack, not defined by the contract\n    /// @param description Is a string containing the concrete CityHack\n    /// @param timestamp Contains the timestamp of the transaction\n    /// @param totalUpvotes Contains the number of upvotes of the CityHack\n    /// @param totalDownvotes Contains the number of downvotes of the CityHack\n    /// @param hidden Indicates if the CityHack should be visible or not\n    /// @dev Hacks are stored in the contract. Consider using a different contract as a database or IPFS storing so CityHacks are not lost whenever a new contract is deployed\n    struct Hack {\n        address owner;\n        uint256 id;\n        uint256 cityId;\n        uint256 categoryId;\n        string description;\n        uint256 timestamp;\n        uint256 totalUpvotes;\n        uint256 totalDownvotes;\n        bool hidden;\n    }\n\n    /// @notice Indicates if an address has voted a CityHack and the vote itself\n    /// @param voted Is a boolean that indicates if the address has voted a specific CityHack\n    /// @param voteResult Is a boolean that indicates the result of the votation\n    struct AddressVote {\n        bool voted;\n        bool voteResult;\n    }\n\n    /// @notice Contains all the CityHacks created to date\n    /// @dev \"hacks\" does not support deleting elements from the array because index is used for CityHack id\n    Hack[] private hacks;\n\n    /// @notice Contains all the votes created to date and is accessed providing the voter address and the CityHack id\n    mapping(address => mapping(uint256 => AddressVote)) private votes;\n\n    constructor() {}\n\n    /// @notice Provides the last report number\n    function getLatestReportNumber() public view returns (uint256) {\n        return latestReportNumber;\n    }\n\n    /// @notice Reports a CityHack\n    /// @param _hackId Contains the id of the CityHack\n    /// @param _reportedHacks Contains the reported hacks to date (including the current one)\n    /// @dev The event for reporting and unreporting is the same\n    /// @dev The number of reported hacks is saved to prevent a difference of reported hacks greater than 1\n    /// @dev Is still possible to stuff the parameter with fake reported hacks, think of a solution to mitigate this possibility\n    /// @dev The variable latestReportNumber is used for event fetching optimization\n    /// @dev There's no validation that the hack id exists, consider adding it\n    function reportHack(uint256 _hackId, uint256[] memory _reportedHacks) public {\n        require(reportedHacksCount + 1 == _reportedHacks.length);\n        latestReportNumber += 1;\n        reportedHacksCount += 1;\n        emit TrustReport(msg.sender, _hackId, true, latestReportNumber, block.timestamp, _reportedHacks);\n    }\n\n    /// @notice Unreports a CityHack\n    /// @param _hackId Contains the id of the CityHack\n    /// @param _reportedHacks Contains the reported hacks to date (including the current one)\n    /// @dev This function is reserved to the owner of the contract\n    /// @dev The event for reporting and unreporting is the same\n    /// @dev The number of reported hacks is saved to prevent a difference of reported hacks greater than 1\n    /// @dev The variable latestReportNumber is used for event fetching optimization\n    /// @dev There's no validation that the hack id exists, consider adding it\n    function unreportHack(uint256 _hackId, uint256[] memory _reportedHacks) public onlyOwner {\n        require(reportedHacksCount - 1 == _reportedHacks.length && reportedHacksCount - 1 >= 0);\n        latestReportNumber += 1;\n        reportedHacksCount -= 1;\n        emit TrustReport(msg.sender, _hackId, false, latestReportNumber, block.timestamp, _reportedHacks);\n    }\n\n    /// @notice Hides and Unreports a CityHack\n    /// @param _hackId Contains the id of the CityHack\n    /// @param _reportedHacks Contains the reported hacks to date (including the current one)\n    /// @dev This function is reserved to the owner of the contract\n    /// @dev This function uses unreportHack function above and hideHack function below\n    function hideAndUnreportHack(uint256 _hackId, uint256[] memory _reportedHacks) public onlyOwner {\n        unreportHack(_hackId, _reportedHacks);\n        hideHack(_hackId);\n    }\n\n    /// @notice Hides a CityHack\n    /// @param _hackId Contains the id of the CityHack\n    /// @dev This function is reserved to the owner of the contract\n    /// @dev There's no validation that the hack id exists, consider adding it\n    function hideHack(uint256 _hackId) public onlyOwner {\n        hacks[_hackId].hidden = true;\n    }\n\n    /// @notice Unhides a CityHack\n    /// @param _hackId Contains the id of the CityHack\n    /// @dev This function is reserved to the owner of the contract\n    /// @dev There's no validation that the hack id exists, consider adding it\n    function unHideHack(uint256 _hackId) public onlyOwner {\n        hacks[_hackId].hidden = false;\n    }\n\n    /// @notice Posts a CityHack\n    /// @param _description Contains the text describing the CityHack\n    /// @param _cityId Contains the city id of the CityHack\n    /// @param _categoryId Contains the category id of the CityHack\n    /// @dev Parameter description must not be empty\n    /// @dev Parameter _cityId must be > 0\n    /// @dev Parameter _categoryId must be > 0\n    /// @dev Variable \"_hackId\" is currently the index of the CityHack in the array\n    /// @dev State variable \"hacks\" does not support element deletions because index is used as CityHack id\n    function postHack(string memory _description, uint256 _cityId, uint256 _categoryId) public {\n        bytes memory stringBytes = bytes(_description);\n        require(stringBytes.length > 0 && _cityId > 0 && _categoryId > 0);\n        uint256 hackNumber = hacks.length;\n        hacks.push(Hack(msg.sender, hackNumber, _cityId, _categoryId, _description, block.timestamp, 0, 0, false));\n        emit NewHack(msg.sender, hackNumber, _description, block.timestamp);\n    }\n\n    /// @notice Votes a CityHack\n    /// @param _hackId Contains the id of the CityHack\n    /// @param _newVoteResult Contains the new result of the vote\n    /// @dev Owner of the hack cannot vote to himself\n    /// @dev A _newVoteResult with the same contents as voteResult is not allowed\n    /// @dev There's no option to withdraw a vote, only to change it\n    /// @dev There's no validation that the hack id exists, consider adding it\n    /// @dev Nested if/else may be confusing to read, consider a refactor\n    function voteHack(uint256 _hackId, bool _newVoteResult) public {\n        require(msg.sender != hacks[_hackId].owner);\n        AddressVote memory addressVote = votes[msg.sender][_hackId];\n        if (addressVote.voted) {\n            require(addressVote.voteResult != _newVoteResult);\n            if (addressVote.voteResult) {\n                hacks[_hackId].totalUpvotes -= 1;\n                hacks[_hackId].totalDownvotes += 1;\n            } else {\n                hacks[_hackId].totalUpvotes += 1;\n                hacks[_hackId].totalDownvotes -= 1;\n            }\n        } else {\n            if (_newVoteResult) {\n                hacks[_hackId].totalUpvotes += 1;\n            }\n            else {\n                hacks[_hackId].totalDownvotes += 1;\n            }\n            addressVote.voted = true;\n        }\n        addressVote.voteResult = _newVoteResult;\n        votes[msg.sender][_hackId] = addressVote;\n        emit VotedHack(msg.sender, _hackId, _newVoteResult, block.timestamp);\n    }\n\n    /// @notice Tips a CityHacker\n    /// @param _hackId Contains the id of the CityHack\n    /// @dev There's no validation that the hack id exists, consider adding it\n    function tipHacker(uint256 _hackId) payable public {\n        (bool sent,) = hacks[_hackId].owner.call{value: msg.value}(\"\");\n        require(sent, \"Failed to send Ether\");\n    }\n\n    /// @notice Returns all CityHacks\n    function getAllHacks() public view returns(Hack[] memory) {\n        return hacks;\n    }\n}\n",
  "sourcePath": "/Users/glovoMarcos/Documents/consensys/blockchain-developer-bootcamp-final-project/contracts/CityHacks.sol",
  "compiler": {
    "name": "solc",
    "version": "0.8.11+commit.d7f03943.Emscripten.clang"
  },
  "schemaVersion": "3.4.4",
  "updatedAt": "2022-01-14T11:21:50.601Z",
  "networkType": "ethereum",
  "devdoc": {
    "details": "Using Ownable from Open Zeppelin for admin purposes",
    "events": {
      "NewHack(address,uint256,string,uint256)": {
        "params": {
          "description": "Is a string containing the CityHack description",
          "from": "(indexed) Contains the address of the wallet that made effective the transaction",
          "id": "(indexed) Contains the id of the CityHack",
          "timestamp": "Contains the timestamp of the transaction"
        }
      },
      "TrustReport(address,uint256,bool,uint256,uint256,uint256[])": {
        "params": {
          "_inadecuate": "Is a boolean indicating if the CityHack is being reported/unreported",
          "from": "(indexed) Contains the address of the wallet that made effective the transaction",
          "id": "(indexed) Contains the id of the CityHack",
          "latestReportNumber": "(indexed) Contains the number of trust report ",
          "reportedHacks": "Contains all the CityHack ids that are currently reported. Must contain as well the id of the current CityHack in case of inadecuated report",
          "timestamp": "Contains the timestamp of the transaction"
        }
      },
      "VotedHack(address,uint256,bool,uint256)": {
        "params": {
          "_voteResult": "Is a boolean indicating if the vote it's voteResult or negative",
          "from": "(indexed) Contains the address of the wallet that made effective the transaction",
          "hackId": "(indexed) Contains the id of the CityHack"
        }
      }
    },
    "kind": "dev",
    "methods": {
      "hideAndUnreportHack(uint256,uint256[])": {
        "details": "This function is reserved to the owner of the contractThis function uses unreportHack function above and hideHack function below",
        "params": {
          "_hackId": "Contains the id of the CityHack",
          "_reportedHacks": "Contains the reported hacks to date (including the current one)"
        }
      },
      "hideHack(uint256)": {
        "details": "This function is reserved to the owner of the contractThere's no validation that the hack id exists, consider adding it",
        "params": {
          "_hackId": "Contains the id of the CityHack"
        }
      },
      "owner()": {
        "details": "Returns the address of the current owner."
      },
      "postHack(string,uint256,uint256)": {
        "details": "Parameter description must not be emptyParameter _cityId must be > 0Parameter _categoryId must be > 0Variable \"_hackId\" is currently the index of the CityHack in the arrayState variable \"hacks\" does not support element deletions because index is used as CityHack id",
        "params": {
          "_categoryId": "Contains the category id of the CityHack",
          "_cityId": "Contains the city id of the CityHack",
          "_description": "Contains the text describing the CityHack"
        }
      },
      "renounceOwnership()": {
        "details": "Leaves the contract without owner. It will not be possible to call `onlyOwner` functions anymore. Can only be called by the current owner. NOTE: Renouncing ownership will leave the contract without an owner, thereby removing any functionality that is only available to the owner."
      },
      "reportHack(uint256,uint256[])": {
        "details": "The event for reporting and unreporting is the sameThe number of reported hacks is saved to prevent a difference of reported hacks greater than 1Is still possible to stuff the parameter with fake reported hacks, think of a solution to mitigate this possibilityThe variable latestReportNumber is used for event fetching optimizationThere's no validation that the hack id exists, consider adding it",
        "params": {
          "_hackId": "Contains the id of the CityHack",
          "_reportedHacks": "Contains the reported hacks to date (including the current one)"
        }
      },
      "tipHacker(uint256)": {
        "details": "There's no validation that the hack id exists, consider adding it",
        "params": {
          "_hackId": "Contains the id of the CityHack"
        }
      },
      "transferOwnership(address)": {
        "details": "Transfers ownership of the contract to a new account (`newOwner`). Can only be called by the current owner."
      },
      "unHideHack(uint256)": {
        "details": "This function is reserved to the owner of the contractThere's no validation that the hack id exists, consider adding it",
        "params": {
          "_hackId": "Contains the id of the CityHack"
        }
      },
      "unreportHack(uint256,uint256[])": {
        "details": "This function is reserved to the owner of the contractThe event for reporting and unreporting is the sameThe number of reported hacks is saved to prevent a difference of reported hacks greater than 1The variable latestReportNumber is used for event fetching optimizationThere's no validation that the hack id exists, consider adding it",
        "params": {
          "_hackId": "Contains the id of the CityHack",
          "_reportedHacks": "Contains the reported hacks to date (including the current one)"
        }
      },
      "voteHack(uint256,bool)": {
        "details": "Owner of the hack cannot vote to himselfA _newVoteResult with the same contents as voteResult is not allowedThere's no option to withdraw a vote, only to change itThere's no validation that the hack id exists, consider adding itNested if/else may be confusing to read, consider a refactor",
        "params": {
          "_hackId": "Contains the id of the CityHack",
          "_newVoteResult": "Contains the new result of the vote"
        }
      }
    },
    "stateVariables": {
      "hacks": {
        "details": "\"hacks\" does not support deleting elements from the array because index is used for CityHack id"
      }
    },
    "version": 1
  },
  "userdoc": {
    "events": {
      "NewHack(address,uint256,string,uint256)": {
        "notice": "Event indicates that a new CityHack has been created"
      },
      "TrustReport(address,uint256,bool,uint256,uint256,uint256[])": {
        "notice": "Event indicates that a CityHack has been reported or unreported     "
      },
      "VotedHack(address,uint256,bool,uint256)": {
        "notice": "Event indicates that a CityHack has been voted"
      }
    },
    "kind": "user",
    "methods": {
      "getAllHacks()": {
        "notice": "Returns all CityHacks"
      },
      "getLatestReportNumber()": {
        "notice": "Provides the last report number"
      },
      "hideAndUnreportHack(uint256,uint256[])": {
        "notice": "Hides and Unreports a CityHack"
      },
      "hideHack(uint256)": {
        "notice": "Hides a CityHack"
      },
      "postHack(string,uint256,uint256)": {
        "notice": "Posts a CityHack"
      },
      "reportHack(uint256,uint256[])": {
        "notice": "Reports a CityHack"
      },
      "tipHacker(uint256)": {
        "notice": "Tips a CityHacker"
      },
      "unHideHack(uint256)": {
        "notice": "Unhides a CityHack"
      },
      "unreportHack(uint256,uint256[])": {
        "notice": "Unreports a CityHack"
      },
      "voteHack(uint256,bool)": {
        "notice": "Votes a CityHack"
      }
    },
    "version": 1
  }
}