{
  "contractName": "CityHacks",
  "abi": [
    {
      "inputs": [],
      "stateMutability": "nonpayable",
      "type": "constructor"
    },
    {
      "anonymous": false,
      "inputs": [
        {
          "indexed": true,
          "internalType": "address",
          "name": "from",
          "type": "address"
        },
        {
          "indexed": true,
          "internalType": "uint256",
          "name": "id",
          "type": "uint256"
        },
        {
          "indexed": false,
          "internalType": "string",
          "name": "description",
          "type": "string"
        },
        {
          "indexed": false,
          "internalType": "uint256",
          "name": "timestamp",
          "type": "uint256"
        }
      ],
      "name": "NewHack",
      "type": "event"
    },
    {
      "anonymous": false,
      "inputs": [
        {
          "indexed": true,
          "internalType": "address",
          "name": "previousOwner",
          "type": "address"
        },
        {
          "indexed": true,
          "internalType": "address",
          "name": "newOwner",
          "type": "address"
        }
      ],
      "name": "OwnershipTransferred",
      "type": "event"
    },
    {
      "anonymous": false,
      "inputs": [
        {
          "indexed": true,
          "internalType": "address",
          "name": "from",
          "type": "address"
        },
        {
          "indexed": true,
          "internalType": "uint256",
          "name": "id",
          "type": "uint256"
        },
        {
          "indexed": false,
          "internalType": "bool",
          "name": "_inadecuate",
          "type": "bool"
        },
        {
          "indexed": true,
          "internalType": "uint256",
          "name": "latestReportBlock",
          "type": "uint256"
        },
        {
          "indexed": false,
          "internalType": "uint256",
          "name": "timestamp",
          "type": "uint256"
        },
        {
          "indexed": false,
          "internalType": "uint256[]",
          "name": "reportedHacks",
          "type": "uint256[]"
        }
      ],
      "name": "TrustReport",
      "type": "event"
    },
    {
      "anonymous": false,
      "inputs": [
        {
          "indexed": true,
          "internalType": "address",
          "name": "from",
          "type": "address"
        },
        {
          "indexed": true,
          "internalType": "uint256",
          "name": "hackId",
          "type": "uint256"
        },
        {
          "indexed": false,
          "internalType": "bool",
          "name": "_positive",
          "type": "bool"
        },
        {
          "indexed": false,
          "internalType": "uint256",
          "name": "timestamp",
          "type": "uint256"
        }
      ],
      "name": "VotedHack",
      "type": "event"
    },
    {
      "inputs": [],
      "name": "owner",
      "outputs": [
        {
          "internalType": "address",
          "name": "",
          "type": "address"
        }
      ],
      "stateMutability": "view",
      "type": "function",
      "constant": true
    },
    {
      "inputs": [],
      "name": "renounceOwnership",
      "outputs": [],
      "stateMutability": "nonpayable",
      "type": "function"
    },
    {
      "inputs": [
        {
          "internalType": "address",
          "name": "newOwner",
          "type": "address"
        }
      ],
      "name": "transferOwnership",
      "outputs": [],
      "stateMutability": "nonpayable",
      "type": "function"
    },
    {
      "inputs": [],
      "name": "getLatestReportBlock",
      "outputs": [
        {
          "internalType": "uint256",
          "name": "",
          "type": "uint256"
        }
      ],
      "stateMutability": "view",
      "type": "function",
      "constant": true
    },
    {
      "inputs": [
        {
          "internalType": "uint256",
          "name": "_hackId",
          "type": "uint256"
        },
        {
          "internalType": "uint256[]",
          "name": "_reportedHacks",
          "type": "uint256[]"
        }
      ],
      "name": "reportHack",
      "outputs": [],
      "stateMutability": "nonpayable",
      "type": "function"
    },
    {
      "inputs": [
        {
          "internalType": "uint256",
          "name": "_hackId",
          "type": "uint256"
        },
        {
          "internalType": "uint256[]",
          "name": "_reportedHacks",
          "type": "uint256[]"
        }
      ],
      "name": "unreportHack",
      "outputs": [],
      "stateMutability": "nonpayable",
      "type": "function"
    },
    {
      "inputs": [
        {
          "internalType": "uint256",
          "name": "_hackId",
          "type": "uint256"
        },
        {
          "internalType": "uint256[]",
          "name": "_reportedHacks",
          "type": "uint256[]"
        }
      ],
      "name": "hideAndUnreportHack",
      "outputs": [],
      "stateMutability": "nonpayable",
      "type": "function"
    },
    {
      "inputs": [
        {
          "internalType": "uint256",
          "name": "_hackId",
          "type": "uint256"
        }
      ],
      "name": "hideHack",
      "outputs": [],
      "stateMutability": "nonpayable",
      "type": "function"
    },
    {
      "inputs": [
        {
          "internalType": "string",
          "name": "_description",
          "type": "string"
        },
        {
          "internalType": "uint256",
          "name": "_cityId",
          "type": "uint256"
        },
        {
          "internalType": "uint256",
          "name": "_categoryId",
          "type": "uint256"
        }
      ],
      "name": "postHack",
      "outputs": [],
      "stateMutability": "nonpayable",
      "type": "function"
    },
    {
      "inputs": [
        {
          "internalType": "uint256",
          "name": "_hackId",
          "type": "uint256"
        },
        {
          "internalType": "bool",
          "name": "_positive",
          "type": "bool"
        }
      ],
      "name": "voteHack",
      "outputs": [],
      "stateMutability": "nonpayable",
      "type": "function"
    },
    {
      "inputs": [
        {
          "internalType": "uint256",
          "name": "_hackId",
          "type": "uint256"
        }
      ],
      "name": "tipHacker",
      "outputs": [],
      "stateMutability": "payable",
      "type": "function",
      "payable": true
    },
    {
      "inputs": [],
      "name": "getAllHacks",
      "outputs": [
        {
          "components": [
            {
              "internalType": "address",
              "name": "owner",
              "type": "address"
            },
            {
              "internalType": "uint256",
              "name": "id",
              "type": "uint256"
            },
            {
              "internalType": "uint256",
              "name": "cityId",
              "type": "uint256"
            },
            {
              "internalType": "uint256",
              "name": "categoryId",
              "type": "uint256"
            },
            {
              "internalType": "string",
              "name": "description",
              "type": "string"
            },
            {
              "internalType": "uint256",
              "name": "timestamp",
              "type": "uint256"
            },
            {
              "internalType": "bool",
              "name": "isVotingBlocked",
              "type": "bool"
            },
            {
              "internalType": "uint256",
              "name": "totalUpvotes",
              "type": "uint256"
            },
            {
              "internalType": "uint256",
              "name": "totalDownvotes",
              "type": "uint256"
            },
            {
              "internalType": "bool",
              "name": "hidden",
              "type": "bool"
            }
          ],
          "internalType": "struct CityHacks.Hack[]",
          "name": "",
          "type": "tuple[]"
        }
      ],
      "stateMutability": "view",
      "type": "function",
      "constant": true
    },
    {
      "inputs": [],
      "name": "getTotalHacks",
      "outputs": [
        {
          "internalType": "uint256",
          "name": "",
          "type": "uint256"
        }
      ],
      "stateMutability": "view",
      "type": "function",
      "constant": true
    }
  ],
  "bytecode": "0x608060405234801561001057600080fd5b5061002d61002261003260201b60201c565b61003a60201b60201c565b6100fe565b600033905090565b60008060009054906101000a900473ffffffffffffffffffffffffffffffffffffffff169050816000806101000a81548173ffffffffffffffffffffffffffffffffffffffff021916908373ffffffffffffffffffffffffffffffffffffffff1602179055508173ffffffffffffffffffffffffffffffffffffffff168173ffffffffffffffffffffffffffffffffffffffff167f8be0079c531659141344cd1fd0a4f28419497f9722a3daafe3b4186f6b6457e060405160405180910390a35050565b611db68061010d6000396000f3fe6080604052600436106100c25760003560e01c80638e15f0d51161007f578063c70ccbb011610059578063c70ccbb01461021f578063cf42dfe714610248578063e3653b1b14610271578063f2fde38b1461029c576100c2565b80638e15f0d5146101a0578063b037aa1c146101cb578063c342b5af146101f6576100c2565b80633ba5fc3e146100c75780634218869e146100e357806342a667331461010c5780636cd7d76814610135578063715018a61461015e5780638da5cb5b14610175575b600080fd5b6100e160048036038101906100dc9190611218565b6102c5565b005b3480156100ef57600080fd5b5061010a6004803603810190610105919061139e565b6103ba565b005b34801561011857600080fd5b50610133600480360381019061012e919061139e565b61044d565b005b34801561014157600080fd5b5061015c60048036038101906101579190611218565b6104e4565b005b34801561016a57600080fd5b506101736105a1565b005b34801561018157600080fd5b5061018a610629565b604051610197919061143b565b60405180910390f35b3480156101ac57600080fd5b506101b5610652565b6040516101c291906116b3565b60405180910390f35b3480156101d757600080fd5b506101e061080c565b6040516101ed91906116e4565b60405180910390f35b34801561020257600080fd5b5061021d6004803603810190610218919061172b565b610816565b005b34801561022b57600080fd5b506102466004803603810190610241919061139e565b610c1d565b005b34801561025457600080fd5b5061026f600480360381019061026a9190611820565b610d4b565b005b34801561027d57600080fd5b50610286610f5d565b60405161029391906116e4565b60405180910390f35b3480156102a857600080fd5b506102c360048036038101906102be91906118bb565b610f67565b005b6000600482815481106102db576102da6118e8565b5b90600052602060002090600a020160000160009054906101000a900473ffffffffffffffffffffffffffffffffffffffff1673ffffffffffffffffffffffffffffffffffffffff163460405161033090611948565b60006040518083038185875af1925050503d806000811461036d576040519150601f19603f3d011682016040523d82523d6000602084013e610372565b606091505b50509050806103b6576040517f08c379a00000000000000000000000000000000000000000000000000000000081526004016103ad906119ba565b60405180910390fd5b5050565b6103c261105f565b73ffffffffffffffffffffffffffffffffffffffff166103e0610629565b73ffffffffffffffffffffffffffffffffffffffff1614610436576040517f08c379a000000000000000000000000000000000000000000000000000000000815260040161042d90611a26565b60405180910390fd5b6104408282610c1d565b610449826104e4565b5050565b8051600160035461045e9190611a75565b1461046857600080fd5b436002819055506001600360008282546104829190611a75565b92505081905550600254823373ffffffffffffffffffffffffffffffffffffffff167fc0c0a23159c4325ee57855cf2c9c8c4949fd576681992d2582912ab0f4db9d20600142866040516104d893929190611b89565b60405180910390a45050565b6104ec61105f565b73ffffffffffffffffffffffffffffffffffffffff1661050a610629565b73ffffffffffffffffffffffffffffffffffffffff1614610560576040517f08c379a000000000000000000000000000000000000000000000000000000000815260040161055790611a26565b60405180910390fd5b600160048281548110610576576105756118e8565b5b90600052602060002090600a020160090160006101000a81548160ff02191690831515021790555050565b6105a961105f565b73ffffffffffffffffffffffffffffffffffffffff166105c7610629565b73ffffffffffffffffffffffffffffffffffffffff161461061d576040517f08c379a000000000000000000000000000000000000000000000000000000000815260040161061490611a26565b60405180910390fd5b6106276000611067565b565b60008060009054906101000a900473ffffffffffffffffffffffffffffffffffffffff16905090565b60606004805480602002602001604051908101604052809291908181526020016000905b8282101561080357838290600052602060002090600a0201604051806101400160405290816000820160009054906101000a900473ffffffffffffffffffffffffffffffffffffffff1673ffffffffffffffffffffffffffffffffffffffff1673ffffffffffffffffffffffffffffffffffffffff16815260200160018201548152602001600282015481526020016003820154815260200160048201805461071e90611bf6565b80601f016020809104026020016040519081016040528092919081815260200182805461074a90611bf6565b80156107975780601f1061076c57610100808354040283529160200191610797565b820191906000526020600020905b81548152906001019060200180831161077a57829003601f168201915b50505050508152602001600582015481526020016006820160009054906101000a900460ff1615151515815260200160078201548152602001600882015481526020016009820160009054906101000a900460ff16151515158152505081526020019060010190610676565b50505050905090565b6000600154905090565b6004828154811061082a576108296118e8565b5b90600052602060002090600a020160000160009054906101000a900473ffffffffffffffffffffffffffffffffffffffff1673ffffffffffffffffffffffffffffffffffffffff163373ffffffffffffffffffffffffffffffffffffffff16141561089457600080fd5b6000600560003373ffffffffffffffffffffffffffffffffffffffff1673ffffffffffffffffffffffffffffffffffffffff16815260200190815260200160002060008481526020019081526020016000206040518060400160405290816000820160009054906101000a900460ff161515151581526020016000820160019054906101000a900460ff1615151515815250509050806000015115610a515781151581602001511515141561094857600080fd5b8060200151156109d157600160048481548110610968576109676118e8565b5b90600052602060002090600a020160070160008282546109889190611c28565b925050819055506001600484815481106109a5576109a46118e8565b5b90600052602060002090600a020160080160008282546109c59190611a75565b92505081905550610a4c565b6001600484815481106109e7576109e66118e8565b5b90600052602060002090600a02016007016000828254610a079190611a75565b92505081905550600160048481548110610a2457610a236118e8565b5b90600052602060002090600a02016008016000828254610a449190611c28565b925050819055505b610ae9565b8115610a9957600160048481548110610a6d57610a6c6118e8565b5b90600052602060002090600a02016007016000828254610a8d9190611a75565b92505081905550610ad7565b600160048481548110610aaf57610aae6118e8565b5b90600052602060002090600a02016008016000828254610acf9190611a75565b925050819055505b60018160000190151590811515815250505b8181602001901515908115158152505080600560003373ffffffffffffffffffffffffffffffffffffffff1673ffffffffffffffffffffffffffffffffffffffff168152602001908152602001600020600085815260200190815260200160002060008201518160000160006101000a81548160ff02191690831515021790555060208201518160000160016101000a81548160ff02191690831515021790555090505060066000848152602001908152602001600020429080600181540180825580915050600190039060005260206000200160009091909190915055823373ffffffffffffffffffffffffffffffffffffffff167f4fb078f057caaccd039905efcc630de8af450d7c575a79dcddc983edd7423c128442604051610c10929190611c5c565b60405180910390a3505050565b610c2561105f565b73ffffffffffffffffffffffffffffffffffffffff16610c43610629565b73ffffffffffffffffffffffffffffffffffffffff1614610c99576040517f08c379a0000000000000000000000000000000000000000000000000000000008152600401610c9090611a26565b60405180910390fd5b80516001600354610caa9190611c28565b148015610cc6575060006001600354610cc39190611c28565b10155b610ccf57600080fd5b43600281905550600160036000828254610ce99190611c28565b92505081905550600254823373ffffffffffffffffffffffffffffffffffffffff167fc0c0a23159c4325ee57855cf2c9c8c4949fd576681992d2582912ab0f4db9d2060004286604051610d3f93929190611b89565b60405180910390a45050565b600083905060008151118015610d615750600083115b8015610d6d5750600082115b610d7657600080fd5b60046040518061014001604052803373ffffffffffffffffffffffffffffffffffffffff168152602001600154815260200185815260200184815260200186815260200142815260200160001515815260200160008152602001600081526020016000151581525090806001815401808255809150506001900390600052602060002090600a020160009091909190915060008201518160000160006101000a81548173ffffffffffffffffffffffffffffffffffffffff021916908373ffffffffffffffffffffffffffffffffffffffff1602179055506020820151816001015560408201518160020155606082015181600301556080820151816004019080519060200190610e8892919061112b565b5060a0820151816005015560c08201518160060160006101000a81548160ff02191690831515021790555060e0820151816007015561010082015181600801556101208201518160090160006101000a81548160ff02191690831515021790555050506001806000828254610efd9190611a75565b925050819055506001543373ffffffffffffffffffffffffffffffffffffffff167ff1bd87d4783914bb1934b1c002d65179a1a8d7f4f3f64a198b93c9e8762204b58642604051610f4f929190611cbe565b60405180910390a350505050565b6000600254905090565b610f6f61105f565b73ffffffffffffffffffffffffffffffffffffffff16610f8d610629565b73ffffffffffffffffffffffffffffffffffffffff1614610fe3576040517f08c379a0000000000000000000000000000000000000000000000000000000008152600401610fda90611a26565b60405180910390fd5b600073ffffffffffffffffffffffffffffffffffffffff168173ffffffffffffffffffffffffffffffffffffffff161415611053576040517f08c379a000000000000000000000000000000000000000000000000000000000815260040161104a90611d60565b60405180910390fd5b61105c81611067565b50565b600033905090565b60008060009054906101000a900473ffffffffffffffffffffffffffffffffffffffff169050816000806101000a81548173ffffffffffffffffffffffffffffffffffffffff021916908373ffffffffffffffffffffffffffffffffffffffff1602179055508173ffffffffffffffffffffffffffffffffffffffff168173ffffffffffffffffffffffffffffffffffffffff167f8be0079c531659141344cd1fd0a4f28419497f9722a3daafe3b4186f6b6457e060405160405180910390a35050565b82805461113790611bf6565b90600052602060002090601f01602090048101928261115957600085556111a0565b82601f1061117257805160ff19168380011785556111a0565b828001600101855582156111a0579182015b8281111561119f578251825591602001919060010190611184565b5b5090506111ad91906111b1565b5090565b5b808211156111ca5760008160009055506001016111b2565b5090565b6000604051905090565b600080fd5b600080fd5b6000819050919050565b6111f5816111e2565b811461120057600080fd5b50565b600081359050611212816111ec565b92915050565b60006020828403121561122e5761122d6111d8565b5b600061123c84828501611203565b91505092915050565b600080fd5b6000601f19601f8301169050919050565b7f4e487b7100000000000000000000000000000000000000000000000000000000600052604160045260246000fd5b6112938261124a565b810181811067ffffffffffffffff821117156112b2576112b161125b565b5b80604052505050565b60006112c56111ce565b90506112d1828261128a565b919050565b600067ffffffffffffffff8211156112f1576112f061125b565b5b602082029050602081019050919050565b600080fd5b600061131a611315846112d6565b6112bb565b9050808382526020820190506020840283018581111561133d5761133c611302565b5b835b8181101561136657806113528882611203565b84526020840193505060208101905061133f565b5050509392505050565b600082601f83011261138557611384611245565b5b8135611395848260208601611307565b91505092915050565b600080604083850312156113b5576113b46111d8565b5b60006113c385828601611203565b925050602083013567ffffffffffffffff8111156113e4576113e36111dd565b5b6113f085828601611370565b9150509250929050565b600073ffffffffffffffffffffffffffffffffffffffff82169050919050565b6000611425826113fa565b9050919050565b6114358161141a565b82525050565b6000602082019050611450600083018461142c565b92915050565b600081519050919050565b600082825260208201905092915050565b6000819050602082019050919050565b61148b8161141a565b82525050565b61149a816111e2565b82525050565b600081519050919050565b600082825260208201905092915050565b60005b838110156114da5780820151818401526020810190506114bf565b838111156114e9576000848401525b50505050565b60006114fa826114a0565b61150481856114ab565b93506115148185602086016114bc565b61151d8161124a565b840191505092915050565b60008115159050919050565b61153d81611528565b82525050565b60006101408301600083015161155c6000860182611482565b50602083015161156f6020860182611491565b5060408301516115826040860182611491565b5060608301516115956060860182611491565b50608083015184820360808601526115ad82826114ef565b91505060a08301516115c260a0860182611491565b5060c08301516115d560c0860182611534565b5060e08301516115e860e0860182611491565b506101008301516115fd610100860182611491565b50610120830151611612610120860182611534565b508091505092915050565b60006116298383611543565b905092915050565b6000602082019050919050565b600061164982611456565b6116538185611461565b93508360208202850161166585611472565b8060005b858110156116a15784840389528151611682858261161d565b945061168d83611631565b925060208a01995050600181019050611669565b50829750879550505050505092915050565b600060208201905081810360008301526116cd818461163e565b905092915050565b6116de816111e2565b82525050565b60006020820190506116f960008301846116d5565b92915050565b61170881611528565b811461171357600080fd5b50565b600081359050611725816116ff565b92915050565b60008060408385031215611742576117416111d8565b5b600061175085828601611203565b925050602061176185828601611716565b9150509250929050565b600080fd5b600067ffffffffffffffff82111561178b5761178a61125b565b5b6117948261124a565b9050602081019050919050565b82818337600083830152505050565b60006117c36117be84611770565b6112bb565b9050828152602081018484840111156117df576117de61176b565b5b6117ea8482856117a1565b509392505050565b600082601f83011261180757611806611245565b5b81356118178482602086016117b0565b91505092915050565b600080600060608486031215611839576118386111d8565b5b600084013567ffffffffffffffff811115611857576118566111dd565b5b611863868287016117f2565b935050602061187486828701611203565b925050604061188586828701611203565b9150509250925092565b6118988161141a565b81146118a357600080fd5b50565b6000813590506118b58161188f565b92915050565b6000602082840312156118d1576118d06111d8565b5b60006118df848285016118a6565b91505092915050565b7f4e487b7100000000000000000000000000000000000000000000000000000000600052603260045260246000fd5b600081905092915050565b50565b6000611932600083611917565b915061193d82611922565b600082019050919050565b600061195382611925565b9150819050919050565b600082825260208201905092915050565b7f4661696c656420746f2073656e64204574686572000000000000000000000000600082015250565b60006119a460148361195d565b91506119af8261196e565b602082019050919050565b600060208201905081810360008301526119d381611997565b9050919050565b7f4f776e61626c653a2063616c6c6572206973206e6f7420746865206f776e6572600082015250565b6000611a1060208361195d565b9150611a1b826119da565b602082019050919050565b60006020820190508181036000830152611a3f81611a03565b9050919050565b7f4e487b7100000000000000000000000000000000000000000000000000000000600052601160045260246000fd5b6000611a80826111e2565b9150611a8b836111e2565b9250827fffffffffffffffffffffffffffffffffffffffffffffffffffffffffffffffff03821115611ac057611abf611a46565b5b828201905092915050565b611ad481611528565b82525050565b600081519050919050565b600082825260208201905092915050565b6000819050602082019050919050565b6000611b128383611491565b60208301905092915050565b6000602082019050919050565b6000611b3682611ada565b611b408185611ae5565b9350611b4b83611af6565b8060005b83811015611b7c578151611b638882611b06565b9750611b6e83611b1e565b925050600181019050611b4f565b5085935050505092915050565b6000606082019050611b9e6000830186611acb565b611bab60208301856116d5565b8181036040830152611bbd8184611b2b565b9050949350505050565b7f4e487b7100000000000000000000000000000000000000000000000000000000600052602260045260246000fd5b60006002820490506001821680611c0e57607f821691505b60208210811415611c2257611c21611bc7565b5b50919050565b6000611c33826111e2565b9150611c3e836111e2565b925082821015611c5157611c50611a46565b5b828203905092915050565b6000604082019050611c716000830185611acb565b611c7e60208301846116d5565b9392505050565b6000611c90826114a0565b611c9a818561195d565b9350611caa8185602086016114bc565b611cb38161124a565b840191505092915050565b60006040820190508181036000830152611cd88185611c85565b9050611ce760208301846116d5565b9392505050565b7f4f776e61626c653a206e6577206f776e657220697320746865207a65726f206160008201527f6464726573730000000000000000000000000000000000000000000000000000602082015250565b6000611d4a60268361195d565b9150611d5582611cee565b604082019050919050565b60006020820190508181036000830152611d7981611d3d565b905091905056fea2646970667358221220a18e725a935be02c3a787c8067f62e4175b684fd4f11df162a3990a30ff79d0564736f6c634300080b0033",
  "immutableReferences": {},
  "source": "// SPDX-License-Identifier: UNLICENSED\n\npragma solidity ^0.8.0;\n\nimport \"hardhat/console.sol\";\nimport \"@openzeppelin/contracts/access/Ownable.sol\";\n\ncontract CityHacks is Ownable {\n    uint256 totalHacks;\n    uint256 private latestReportBlock;\n    uint256 private reportedHacksCount;\n\n    event TrustReport(address indexed from, uint256 indexed id, bool _inadecuate, uint256 indexed latestReportBlock, uint256 timestamp, uint256[] reportedHacks);\n\n    event NewHack(address indexed from, uint256 indexed id, string description, uint256 timestamp);\n    event VotedHack(address indexed from, uint256 indexed hackId, bool _positive, uint256 timestamp);\n\n    struct Hack {\n        address owner;\n        uint256 id;\n        uint256 cityId;\n        uint256 categoryId;\n        string description;\n        uint256 timestamp;\n        bool isVotingBlocked;\n        uint256 totalUpvotes;\n        uint256 totalDownvotes;\n        bool hidden;\n    }\n\n    struct AddressVote {\n        bool voted;\n        bool voteResult;\n    }\n\n    Hack[] hacks;\n    mapping(address => mapping(uint256 => AddressVote)) votes;\n    mapping(uint256 => uint256[]) voteTimestamps;\n\n    constructor() {}\n\n    function getLatestReportBlock() public view returns (uint256) {\n        return latestReportBlock;\n    }\n\n    function reportHack(uint256 _hackId, uint256[] memory _reportedHacks) public {\n        require(reportedHacksCount + 1 == _reportedHacks.length);\n        latestReportBlock = block.number;\n        reportedHacksCount += 1;\n        emit TrustReport(msg.sender, _hackId, true, latestReportBlock, block.timestamp, _reportedHacks);\n    }\n\n    function unreportHack(uint256 _hackId, uint256[] memory _reportedHacks) public onlyOwner {\n        require(reportedHacksCount - 1 == _reportedHacks.length && reportedHacksCount - 1 >= 0);\n        latestReportBlock = block.number;\n        reportedHacksCount -= 1;\n        emit TrustReport(msg.sender, _hackId, false, latestReportBlock, block.timestamp, _reportedHacks);\n    }\n\n    function hideAndUnreportHack(uint256 _hackId, uint256[] memory _reportedHacks) public onlyOwner {\n        unreportHack(_hackId, _reportedHacks);\n        hideHack(_hackId);\n    }\n\n    function hideHack(uint256 _hackId) public onlyOwner {\n        hacks[_hackId].hidden = true;\n    }\n\n    function postHack(string memory _description, uint256 _cityId, uint256 _categoryId) public {\n        bytes memory stringBytes = bytes(_description);\n        require(stringBytes.length > 0 && _cityId > 0 && _categoryId > 0);\n        hacks.push(Hack(msg.sender, totalHacks, _cityId, _categoryId, _description, block.timestamp, false, 0, 0, false));\n        totalHacks += 1;\n        emit NewHack(msg.sender, totalHacks, _description, block.timestamp);\n    }\n\n    function voteHack(uint256 _hackId, bool _positive) public {\n        require(msg.sender != hacks[_hackId].owner);\n        AddressVote memory addressVote = votes[msg.sender][_hackId];\n        if (addressVote.voted) {\n            require(addressVote.voteResult != _positive);\n            if (addressVote.voteResult) {\n                hacks[_hackId].totalUpvotes -= 1;\n                hacks[_hackId].totalDownvotes += 1;\n            } else {\n                hacks[_hackId].totalUpvotes += 1;\n                hacks[_hackId].totalDownvotes -= 1;\n            }\n        } else {\n            if (_positive) {\n                hacks[_hackId].totalUpvotes += 1;\n            }\n            else {\n                hacks[_hackId].totalDownvotes += 1;\n            }\n            addressVote.voted = true;\n        }\n        addressVote.voteResult = _positive;\n        votes[msg.sender][_hackId] = addressVote;\n        voteTimestamps[_hackId].push(block.timestamp);\n        emit VotedHack(msg.sender, _hackId, _positive, block.timestamp);\n    }\n\n    function tipHacker(uint256 _hackId) payable public {\n        (bool sent,) = hacks[_hackId].owner.call{value: msg.value}(\"\");\n        require(sent, \"Failed to send Ether\");\n    }\n\n    function getAllHacks() public view returns(Hack[] memory) {\n        return hacks;\n    }\n\n    function getTotalHacks() public view returns (uint256) {\n        return totalHacks;\n    }\n}\n",
  "sourcePath": "/Users/glovoMarcos/Documents/consensys/blockchain-developer-bootcamp-final-project/contracts/CityHacks.sol",
  "compiler": {
    "name": "solc",
    "version": "0.8.11+commit.d7f03943.Emscripten.clang"
  },
  "schemaVersion": "3.4.4",
  "updatedAt": "2022-01-12T16:00:50.736Z",
  "networkType": "ethereum",
  "devdoc": {
    "kind": "dev",
    "methods": {
      "owner()": {
        "details": "Returns the address of the current owner."
      },
      "renounceOwnership()": {
        "details": "Leaves the contract without owner. It will not be possible to call `onlyOwner` functions anymore. Can only be called by the current owner. NOTE: Renouncing ownership will leave the contract without an owner, thereby removing any functionality that is only available to the owner."
      },
      "transferOwnership(address)": {
        "details": "Transfers ownership of the contract to a new account (`newOwner`). Can only be called by the current owner."
      }
    },
    "version": 1
  },
  "userdoc": {
    "kind": "user",
    "methods": {},
    "version": 1
  }
}