{
  "_format": "hh-sol-artifact-1",
  "contractName": "CityHacks",
  "sourceName": "contracts/CityHacks.sol",
  "abi": [
    {
      "inputs": [],
      "stateMutability": "nonpayable",
      "type": "constructor"
    },
    {
      "anonymous": false,
      "inputs": [
        {
          "indexed": true,
          "internalType": "address",
          "name": "from",
          "type": "address"
        },
        {
          "indexed": true,
          "internalType": "uint256",
          "name": "id",
          "type": "uint256"
        },
        {
          "indexed": false,
          "internalType": "string",
          "name": "description",
          "type": "string"
        },
        {
          "indexed": false,
          "internalType": "uint256",
          "name": "timestamp",
          "type": "uint256"
        }
      ],
      "name": "NewHack",
      "type": "event"
    },
    {
      "anonymous": false,
      "inputs": [
        {
          "indexed": true,
          "internalType": "address",
          "name": "previousOwner",
          "type": "address"
        },
        {
          "indexed": true,
          "internalType": "address",
          "name": "newOwner",
          "type": "address"
        }
      ],
      "name": "OwnershipTransferred",
      "type": "event"
    },
    {
      "anonymous": false,
      "inputs": [
        {
          "indexed": true,
          "internalType": "address",
          "name": "from",
          "type": "address"
        },
        {
          "indexed": true,
          "internalType": "uint256",
          "name": "id",
          "type": "uint256"
        },
        {
          "indexed": false,
          "internalType": "bool",
          "name": "_inadecuate",
          "type": "bool"
        },
        {
          "indexed": true,
          "internalType": "uint256",
          "name": "latestReportBlock",
          "type": "uint256"
        },
        {
          "indexed": false,
          "internalType": "uint256",
          "name": "timestamp",
          "type": "uint256"
        },
        {
          "indexed": false,
          "internalType": "uint256[]",
          "name": "reportedHacks",
          "type": "uint256[]"
        }
      ],
      "name": "TrustReport",
      "type": "event"
    },
    {
      "anonymous": false,
      "inputs": [
        {
          "indexed": true,
          "internalType": "address",
          "name": "from",
          "type": "address"
        },
        {
          "indexed": true,
          "internalType": "uint256",
          "name": "hackId",
          "type": "uint256"
        },
        {
          "indexed": false,
          "internalType": "bool",
          "name": "_positive",
          "type": "bool"
        },
        {
          "indexed": false,
          "internalType": "uint256",
          "name": "timestamp",
          "type": "uint256"
        }
      ],
      "name": "VotedHack",
      "type": "event"
    },
    {
      "inputs": [],
      "name": "getAllHacks",
      "outputs": [
        {
          "components": [
            {
              "internalType": "address",
              "name": "owner",
              "type": "address"
            },
            {
              "internalType": "uint256",
              "name": "id",
              "type": "uint256"
            },
            {
              "internalType": "uint256",
              "name": "cityId",
              "type": "uint256"
            },
            {
              "internalType": "uint256",
              "name": "categoryId",
              "type": "uint256"
            },
            {
              "internalType": "string",
              "name": "description",
              "type": "string"
            },
            {
              "internalType": "uint256",
              "name": "timestamp",
              "type": "uint256"
            },
            {
              "internalType": "bool",
              "name": "isVotingBlocked",
              "type": "bool"
            },
            {
              "internalType": "uint256",
              "name": "totalUpvotes",
              "type": "uint256"
            },
            {
              "internalType": "uint256",
              "name": "totalDownvotes",
              "type": "uint256"
            },
            {
              "internalType": "bool",
              "name": "hidden",
              "type": "bool"
            }
          ],
          "internalType": "struct CityHacks.Hack[]",
          "name": "",
          "type": "tuple[]"
        }
      ],
      "stateMutability": "view",
      "type": "function"
    },
    {
      "inputs": [],
      "name": "getLatestReportBlock",
      "outputs": [
        {
          "internalType": "uint256",
          "name": "",
          "type": "uint256"
        }
      ],
      "stateMutability": "view",
      "type": "function"
    },
    {
      "inputs": [],
      "name": "getTotalHacks",
      "outputs": [
        {
          "internalType": "uint256",
          "name": "",
          "type": "uint256"
        }
      ],
      "stateMutability": "view",
      "type": "function"
    },
    {
      "inputs": [
        {
          "internalType": "uint256",
          "name": "_hackId",
          "type": "uint256"
        },
        {
          "internalType": "uint256[]",
          "name": "_reportedHacks",
          "type": "uint256[]"
        }
      ],
      "name": "hideAndUnreportHack",
      "outputs": [],
      "stateMutability": "nonpayable",
      "type": "function"
    },
    {
      "inputs": [
        {
          "internalType": "uint256",
          "name": "_hackId",
          "type": "uint256"
        }
      ],
      "name": "hideHack",
      "outputs": [],
      "stateMutability": "nonpayable",
      "type": "function"
    },
    {
      "inputs": [],
      "name": "owner",
      "outputs": [
        {
          "internalType": "address",
          "name": "",
          "type": "address"
        }
      ],
      "stateMutability": "view",
      "type": "function"
    },
    {
      "inputs": [
        {
          "internalType": "string",
          "name": "_description",
          "type": "string"
        },
        {
          "internalType": "uint256",
          "name": "_cityId",
          "type": "uint256"
        },
        {
          "internalType": "uint256",
          "name": "_categoryId",
          "type": "uint256"
        }
      ],
      "name": "postHack",
      "outputs": [],
      "stateMutability": "nonpayable",
      "type": "function"
    },
    {
      "inputs": [],
      "name": "renounceOwnership",
      "outputs": [],
      "stateMutability": "nonpayable",
      "type": "function"
    },
    {
      "inputs": [
        {
          "internalType": "uint256",
          "name": "_hackId",
          "type": "uint256"
        },
        {
          "internalType": "uint256[]",
          "name": "_reportedHacks",
          "type": "uint256[]"
        }
      ],
      "name": "reportHack",
      "outputs": [],
      "stateMutability": "nonpayable",
      "type": "function"
    },
    {
      "inputs": [
        {
          "internalType": "uint256",
          "name": "_hackId",
          "type": "uint256"
        }
      ],
      "name": "tipHacker",
      "outputs": [],
      "stateMutability": "payable",
      "type": "function"
    },
    {
      "inputs": [
        {
          "internalType": "address",
          "name": "newOwner",
          "type": "address"
        }
      ],
      "name": "transferOwnership",
      "outputs": [],
      "stateMutability": "nonpayable",
      "type": "function"
    },
    {
      "inputs": [
        {
          "internalType": "uint256",
          "name": "_hackId",
          "type": "uint256"
        },
        {
          "internalType": "uint256[]",
          "name": "_reportedHacks",
          "type": "uint256[]"
        }
      ],
      "name": "unreportHack",
      "outputs": [],
      "stateMutability": "nonpayable",
      "type": "function"
    },
    {
      "inputs": [
        {
          "internalType": "uint256",
          "name": "_hackId",
          "type": "uint256"
        },
        {
          "internalType": "bool",
          "name": "_positive",
          "type": "bool"
        }
      ],
      "name": "voteHack",
      "outputs": [],
      "stateMutability": "nonpayable",
      "type": "function"
    }
  ],
  "bytecode": "0x608060405234801561001057600080fd5b5061002d61002261003260201b60201c565b61003a60201b60201c565b6100fe565b600033905090565b60008060009054906101000a900473ffffffffffffffffffffffffffffffffffffffff169050816000806101000a81548173ffffffffffffffffffffffffffffffffffffffff021916908373ffffffffffffffffffffffffffffffffffffffff1602179055508173ffffffffffffffffffffffffffffffffffffffff168173ffffffffffffffffffffffffffffffffffffffff167f8be0079c531659141344cd1fd0a4f28419497f9722a3daafe3b4186f6b6457e060405160405180910390a35050565b611f1b8061010d6000396000f3fe6080604052600436106100c25760003560e01c80638e15f0d51161007f578063c70ccbb011610059578063c70ccbb01461021f578063cf42dfe714610248578063e3653b1b14610271578063f2fde38b1461029c576100c2565b80638e15f0d5146101a0578063b037aa1c146101cb578063c342b5af146101f6576100c2565b80633ba5fc3e146100c75780634218869e146100e357806342a667331461010c5780636cd7d76814610135578063715018a61461015e5780638da5cb5b14610175575b600080fd5b6100e160048036038101906100dc919061156d565b6102c5565b005b3480156100ef57600080fd5b5061010a60048036038101906101059190611596565b6103e0565b005b34801561011857600080fd5b50610133600480360381019061012e9190611596565b610473565b005b34801561014157600080fd5b5061015c6004803603810190610157919061156d565b61050a565b005b34801561016a57600080fd5b506101736105ed565b005b34801561018157600080fd5b5061018a610675565b604051610197919061196c565b60405180910390f35b3480156101ac57600080fd5b506101b561069e565b6040516101c29190611987565b60405180910390f35b3480156101d757600080fd5b506101e0610858565b6040516101ed9190611aa0565b60405180910390f35b34801561020257600080fd5b5061021d600480360381019061021891906115ea565b610862565b005b34801561022b57600080fd5b5061024660048036038101906102419190611596565b610d73565b005b34801561025457600080fd5b5061026f600480360381019061026a9190611506565b610ea1565b005b34801561027d57600080fd5b506102866110b3565b6040516102939190611aa0565b60405180910390f35b3480156102a857600080fd5b506102c360048036038101906102be91906114dd565b611139565b005b600060048281548110610301577f4e487b7100000000000000000000000000000000000000000000000000000000600052603260045260246000fd5b90600052602060002090600a020160000160009054906101000a900473ffffffffffffffffffffffffffffffffffffffff1673ffffffffffffffffffffffffffffffffffffffff163460405161035690611957565b60006040518083038185875af1925050503d8060008114610393576040519150601f19603f3d011682016040523d82523d6000602084013e610398565b606091505b50509050806103dc576040517f08c379a00000000000000000000000000000000000000000000000000000000081526004016103d390611a60565b60405180910390fd5b5050565b6103e8611231565b73ffffffffffffffffffffffffffffffffffffffff16610406610675565b73ffffffffffffffffffffffffffffffffffffffff161461045c576040517f08c379a000000000000000000000000000000000000000000000000000000000815260040161045390611a80565b60405180910390fd5b6104668282610d73565b61046f8261050a565b5050565b805160016003546104849190611be7565b1461048e57600080fd5b436002819055506001600360008282546104a89190611be7565b92505081905550600254823373ffffffffffffffffffffffffffffffffffffffff167fc0c0a23159c4325ee57855cf2c9c8c4949fd576681992d2582912ab0f4db9d20600142866040516104fe939291906119d2565b60405180910390a45050565b610512611231565b73ffffffffffffffffffffffffffffffffffffffff16610530610675565b73ffffffffffffffffffffffffffffffffffffffff1614610586576040517f08c379a000000000000000000000000000000000000000000000000000000000815260040161057d90611a80565b60405180910390fd5b6001600482815481106105c2577f4e487b7100000000000000000000000000000000000000000000000000000000600052603260045260246000fd5b90600052602060002090600a020160090160006101000a81548160ff02191690831515021790555050565b6105f5611231565b73ffffffffffffffffffffffffffffffffffffffff16610613610675565b73ffffffffffffffffffffffffffffffffffffffff1614610669576040517f08c379a000000000000000000000000000000000000000000000000000000000815260040161066090611a80565b60405180910390fd5b6106736000611239565b565b60008060009054906101000a900473ffffffffffffffffffffffffffffffffffffffff16905090565b60606004805480602002602001604051908101604052809291908181526020016000905b8282101561084f57838290600052602060002090600a0201604051806101400160405290816000820160009054906101000a900473ffffffffffffffffffffffffffffffffffffffff1673ffffffffffffffffffffffffffffffffffffffff1673ffffffffffffffffffffffffffffffffffffffff16815260200160018201548152602001600282015481526020016003820154815260200160048201805461076a90611cfb565b80601f016020809104026020016040519081016040528092919081815260200182805461079690611cfb565b80156107e35780601f106107b8576101008083540402835291602001916107e3565b820191906000526020600020905b8154815290600101906020018083116107c657829003601f168201915b50505050508152602001600582015481526020016006820160009054906101000a900460ff1615151515815260200160078201548152602001600882015481526020016009820160009054906101000a900460ff161515151581525050815260200190600101906106c2565b50505050905090565b6000600154905090565b6004828154811061089c577f4e487b7100000000000000000000000000000000000000000000000000000000600052603260045260246000fd5b90600052602060002090600a020160000160009054906101000a900473ffffffffffffffffffffffffffffffffffffffff1673ffffffffffffffffffffffffffffffffffffffff163373ffffffffffffffffffffffffffffffffffffffff16141561090657600080fd5b6000600560003373ffffffffffffffffffffffffffffffffffffffff1673ffffffffffffffffffffffffffffffffffffffff16815260200190815260200160002060008481526020019081526020016000206040518060400160405290816000820160009054906101000a900460ff161515151581526020016000820160019054906101000a900460ff1615151515815250509050806000015115610b5b578115158160200151151514156109ba57600080fd5b806020015115610a8f57600160048481548110610a00577f4e487b7100000000000000000000000000000000000000000000000000000000600052603260045260246000fd5b90600052602060002090600a02016007016000828254610a209190611c3d565b92505081905550600160048481548110610a63577f4e487b7100000000000000000000000000000000000000000000000000000000600052603260045260246000fd5b90600052602060002090600a02016008016000828254610a839190611be7565b92505081905550610b56565b600160048481548110610acb577f4e487b7100000000000000000000000000000000000000000000000000000000600052603260045260246000fd5b90600052602060002090600a02016007016000828254610aeb9190611be7565b92505081905550600160048481548110610b2e577f4e487b7100000000000000000000000000000000000000000000000000000000600052603260045260246000fd5b90600052602060002090600a02016008016000828254610b4e9190611c3d565b925050819055505b610c3f565b8115610bc957600160048481548110610b9d577f4e487b7100000000000000000000000000000000000000000000000000000000600052603260045260246000fd5b90600052602060002090600a02016007016000828254610bbd9190611be7565b92505081905550610c2d565b600160048481548110610c05577f4e487b7100000000000000000000000000000000000000000000000000000000600052603260045260246000fd5b90600052602060002090600a02016008016000828254610c259190611be7565b925050819055505b60018160000190151590811515815250505b8181602001901515908115158152505080600560003373ffffffffffffffffffffffffffffffffffffffff1673ffffffffffffffffffffffffffffffffffffffff168152602001908152602001600020600085815260200190815260200160002060008201518160000160006101000a81548160ff02191690831515021790555060208201518160000160016101000a81548160ff02191690831515021790555090505060066000848152602001908152602001600020429080600181540180825580915050600190039060005260206000200160009091909190915055823373ffffffffffffffffffffffffffffffffffffffff167f4fb078f057caaccd039905efcc630de8af450d7c575a79dcddc983edd7423c128442604051610d669291906119a9565b60405180910390a3505050565b610d7b611231565b73ffffffffffffffffffffffffffffffffffffffff16610d99610675565b73ffffffffffffffffffffffffffffffffffffffff1614610def576040517f08c379a0000000000000000000000000000000000000000000000000000000008152600401610de690611a80565b60405180910390fd5b80516001600354610e009190611c3d565b148015610e1c575060006001600354610e199190611c3d565b10155b610e2557600080fd5b43600281905550600160036000828254610e3f9190611c3d565b92505081905550600254823373ffffffffffffffffffffffffffffffffffffffff167fc0c0a23159c4325ee57855cf2c9c8c4949fd576681992d2582912ab0f4db9d2060004286604051610e95939291906119d2565b60405180910390a45050565b600083905060008151118015610eb75750600083115b8015610ec35750600082115b610ecc57600080fd5b60046040518061014001604052803373ffffffffffffffffffffffffffffffffffffffff168152602001600154815260200185815260200184815260200186815260200142815260200160001515815260200160008152602001600081526020016000151581525090806001815401808255809150506001900390600052602060002090600a020160009091909190915060008201518160000160006101000a81548173ffffffffffffffffffffffffffffffffffffffff021916908373ffffffffffffffffffffffffffffffffffffffff1602179055506020820151816001015560408201518160020155606082015181600301556080820151816004019080519060200190610fde9291906112fd565b5060a0820151816005015560c08201518160060160006101000a81548160ff02191690831515021790555060e0820151816007015561010082015181600801556101208201518160090160006101000a81548160ff021916908315150217905550505060018060008282546110539190611be7565b925050819055506001543373ffffffffffffffffffffffffffffffffffffffff167ff1bd87d4783914bb1934b1c002d65179a1a8d7f4f3f64a198b93c9e8762204b586426040516110a5929190611a10565b60405180910390a350505050565b60006110bd611231565b73ffffffffffffffffffffffffffffffffffffffff166110db610675565b73ffffffffffffffffffffffffffffffffffffffff1614611131576040517f08c379a000000000000000000000000000000000000000000000000000000000815260040161112890611a80565b60405180910390fd5b600254905090565b611141611231565b73ffffffffffffffffffffffffffffffffffffffff1661115f610675565b73ffffffffffffffffffffffffffffffffffffffff16146111b5576040517f08c379a00000000000000000000000000000000000000000000000000000000081526004016111ac90611a80565b60405180910390fd5b600073ffffffffffffffffffffffffffffffffffffffff168173ffffffffffffffffffffffffffffffffffffffff161415611225576040517f08c379a000000000000000000000000000000000000000000000000000000000815260040161121c90611a40565b60405180910390fd5b61122e81611239565b50565b600033905090565b60008060009054906101000a900473ffffffffffffffffffffffffffffffffffffffff169050816000806101000a81548173ffffffffffffffffffffffffffffffffffffffff021916908373ffffffffffffffffffffffffffffffffffffffff1602179055508173ffffffffffffffffffffffffffffffffffffffff168173ffffffffffffffffffffffffffffffffffffffff167f8be0079c531659141344cd1fd0a4f28419497f9722a3daafe3b4186f6b6457e060405160405180910390a35050565b82805461130990611cfb565b90600052602060002090601f01602090048101928261132b5760008555611372565b82601f1061134457805160ff1916838001178555611372565b82800160010185558215611372579182015b82811115611371578251825591602001919060010190611356565b5b50905061137f9190611383565b5090565b5b8082111561139c576000816000905550600101611384565b5090565b60006113b36113ae84611ae0565b611abb565b905080838252602082019050828560208602820111156113d257600080fd5b60005b8581101561140257816113e888826114c8565b8452602084019350602083019250506001810190506113d5565b5050509392505050565b600061141f61141a84611b0c565b611abb565b90508281526020810184848401111561143757600080fd5b611442848285611cb9565b509392505050565b60008135905061145981611ea0565b92915050565b600082601f83011261147057600080fd5b81356114808482602086016113a0565b91505092915050565b60008135905061149881611eb7565b92915050565b600082601f8301126114af57600080fd5b81356114bf84826020860161140c565b91505092915050565b6000813590506114d781611ece565b92915050565b6000602082840312156114ef57600080fd5b60006114fd8482850161144a565b91505092915050565b60008060006060848603121561151b57600080fd5b600084013567ffffffffffffffff81111561153557600080fd5b6115418682870161149e565b9350506020611552868287016114c8565b9250506040611563868287016114c8565b9150509250925092565b60006020828403121561157f57600080fd5b600061158d848285016114c8565b91505092915050565b600080604083850312156115a957600080fd5b60006115b7858286016114c8565b925050602083013567ffffffffffffffff8111156115d457600080fd5b6115e08582860161145f565b9150509250929050565b600080604083850312156115fd57600080fd5b600061160b858286016114c8565b925050602061161c85828601611489565b9150509250929050565b6000611632838361185f565b905092915050565b60006116468383611939565b60208301905092915050565b61165b81611c71565b82525050565b61166a81611c71565b82525050565b600061167b82611b5d565b6116858185611b98565b93508360208202850161169785611b3d565b8060005b858110156116d357848403895281516116b48582611626565b94506116bf83611b7e565b925060208a0199505060018101905061169b565b50829750879550505050505092915050565b60006116f082611b68565b6116fa8185611ba9565b935061170583611b4d565b8060005b8381101561173657815161171d888261163a565b975061172883611b8b565b925050600181019050611709565b5085935050505092915050565b61174c81611c83565b82525050565b61175b81611c83565b82525050565b600061176c82611b73565b6117768185611bc5565b9350611786818560208601611cc8565b61178f81611deb565b840191505092915050565b60006117a582611b73565b6117af8185611bd6565b93506117bf818560208601611cc8565b6117c881611deb565b840191505092915050565b60006117e0602683611bd6565b91506117eb82611dfc565b604082019050919050565b6000611803601483611bd6565b915061180e82611e4b565b602082019050919050565b6000611826602083611bd6565b915061183182611e74565b602082019050919050565b6000611849600083611bba565b915061185482611e9d565b600082019050919050565b6000610140830160008301516118786000860182611652565b50602083015161188b6020860182611939565b50604083015161189e6040860182611939565b5060608301516118b16060860182611939565b50608083015184820360808601526118c98282611761565b91505060a08301516118de60a0860182611939565b5060c08301516118f160c0860182611743565b5060e083015161190460e0860182611939565b50610100830151611919610100860182611939565b5061012083015161192e610120860182611743565b508091505092915050565b61194281611caf565b82525050565b61195181611caf565b82525050565b60006119628261183c565b9150819050919050565b60006020820190506119816000830184611661565b92915050565b600060208201905081810360008301526119a18184611670565b905092915050565b60006040820190506119be6000830185611752565b6119cb6020830184611948565b9392505050565b60006060820190506119e76000830186611752565b6119f46020830185611948565b8181036040830152611a0681846116e5565b9050949350505050565b60006040820190508181036000830152611a2a818561179a565b9050611a396020830184611948565b9392505050565b60006020820190508181036000830152611a59816117d3565b9050919050565b60006020820190508181036000830152611a79816117f6565b9050919050565b60006020820190508181036000830152611a9981611819565b9050919050565b6000602082019050611ab56000830184611948565b92915050565b6000611ac5611ad6565b9050611ad18282611d2d565b919050565b6000604051905090565b600067ffffffffffffffff821115611afb57611afa611dbc565b5b602082029050602081019050919050565b600067ffffffffffffffff821115611b2757611b26611dbc565b5b611b3082611deb565b9050602081019050919050565b6000819050602082019050919050565b6000819050602082019050919050565b600081519050919050565b600081519050919050565b600081519050919050565b6000602082019050919050565b6000602082019050919050565b600082825260208201905092915050565b600082825260208201905092915050565b600081905092915050565b600082825260208201905092915050565b600082825260208201905092915050565b6000611bf282611caf565b9150611bfd83611caf565b9250827fffffffffffffffffffffffffffffffffffffffffffffffffffffffffffffffff03821115611c3257611c31611d5e565b5b828201905092915050565b6000611c4882611caf565b9150611c5383611caf565b925082821015611c6657611c65611d5e565b5b828203905092915050565b6000611c7c82611c8f565b9050919050565b60008115159050919050565b600073ffffffffffffffffffffffffffffffffffffffff82169050919050565b6000819050919050565b82818337600083830152505050565b60005b83811015611ce6578082015181840152602081019050611ccb565b83811115611cf5576000848401525b50505050565b60006002820490506001821680611d1357607f821691505b60208210811415611d2757611d26611d8d565b5b50919050565b611d3682611deb565b810181811067ffffffffffffffff82111715611d5557611d54611dbc565b5b80604052505050565b7f4e487b7100000000000000000000000000000000000000000000000000000000600052601160045260246000fd5b7f4e487b7100000000000000000000000000000000000000000000000000000000600052602260045260246000fd5b7f4e487b7100000000000000000000000000000000000000000000000000000000600052604160045260246000fd5b6000601f19601f8301169050919050565b7f4f776e61626c653a206e6577206f776e657220697320746865207a65726f206160008201527f6464726573730000000000000000000000000000000000000000000000000000602082015250565b7f4661696c656420746f2073656e64204574686572000000000000000000000000600082015250565b7f4f776e61626c653a2063616c6c6572206973206e6f7420746865206f776e6572600082015250565b50565b611ea981611c71565b8114611eb457600080fd5b50565b611ec081611c83565b8114611ecb57600080fd5b50565b611ed781611caf565b8114611ee257600080fd5b5056fea2646970667358221220673f621c7add2b3ad1c158033476a53a8f6a4fc402edf658ade2edcc8aed1ae964736f6c63430008040033",
  "linkReferences": {},
  "deployedLinkReferences": {}
}